{"abi":[{"type":"constructor","inputs":[],"stateMutability":"nonpayable"},{"type":"function","name":"DOMAIN_SEPARATOR","inputs":[],"outputs":[{"name":"","type":"bytes32","internalType":"bytes32"}],"stateMutability":"view"},{"type":"function","name":"allowance","inputs":[{"name":"owner","type":"address","internalType":"address"},{"name":"spender","type":"address","internalType":"address"}],"outputs":[{"name":"","type":"uint256","internalType":"uint256"}],"stateMutability":"view"},{"type":"function","name":"approve","inputs":[{"name":"spender","type":"address","internalType":"address"},{"name":"value","type":"uint256","internalType":"uint256"}],"outputs":[{"name":"","type":"bool","internalType":"bool"}],"stateMutability":"nonpayable"},{"type":"function","name":"balanceOf","inputs":[{"name":"account","type":"address","internalType":"address"}],"outputs":[{"name":"","type":"uint256","internalType":"uint256"}],"stateMutability":"view"},{"type":"function","name":"burn","inputs":[{"name":"value","type":"uint256","internalType":"uint256"}],"outputs":[],"stateMutability":"nonpayable"},{"type":"function","name":"burnFrom","inputs":[{"name":"account","type":"address","internalType":"address"},{"name":"value","type":"uint256","internalType":"uint256"}],"outputs":[],"stateMutability":"nonpayable"},{"type":"function","name":"decimals","inputs":[],"outputs":[{"name":"","type":"uint8","internalType":"uint8"}],"stateMutability":"view"},{"type":"function","name":"eip712Domain","inputs":[],"outputs":[{"name":"fields","type":"bytes1","internalType":"bytes1"},{"name":"name","type":"string","internalType":"string"},{"name":"version","type":"string","internalType":"string"},{"name":"chainId","type":"uint256","internalType":"uint256"},{"name":"verifyingContract","type":"address","internalType":"address"},{"name":"salt","type":"bytes32","internalType":"bytes32"},{"name":"extensions","type":"uint256[]","internalType":"uint256[]"}],"stateMutability":"view"},{"type":"function","name":"getOwner","inputs":[],"outputs":[{"name":"","type":"address","internalType":"address"}],"stateMutability":"view"},{"type":"function","name":"mint","inputs":[{"name":"to","type":"address","internalType":"address"},{"name":"amount","type":"uint256","internalType":"uint256"}],"outputs":[],"stateMutability":"nonpayable"},{"type":"function","name":"name","inputs":[],"outputs":[{"name":"","type":"string","internalType":"string"}],"stateMutability":"view"},{"type":"function","name":"nonces","inputs":[{"name":"owner","type":"address","internalType":"address"}],"outputs":[{"name":"","type":"uint256","internalType":"uint256"}],"stateMutability":"view"},{"type":"function","name":"owner","inputs":[],"outputs":[{"name":"","type":"address","internalType":"address"}],"stateMutability":"view"},{"type":"function","name":"permit","inputs":[{"name":"owner","type":"address","internalType":"address"},{"name":"spender","type":"address","internalType":"address"},{"name":"value","type":"uint256","internalType":"uint256"},{"name":"deadline","type":"uint256","internalType":"uint256"},{"name":"v","type":"uint8","internalType":"uint8"},{"name":"r","type":"bytes32","internalType":"bytes32"},{"name":"s","type":"bytes32","internalType":"bytes32"}],"outputs":[],"stateMutability":"nonpayable"},{"type":"function","name":"renounceOwnership","inputs":[],"outputs":[],"stateMutability":"nonpayable"},{"type":"function","name":"symbol","inputs":[],"outputs":[{"name":"","type":"string","internalType":"string"}],"stateMutability":"view"},{"type":"function","name":"totalSupply","inputs":[],"outputs":[{"name":"","type":"uint256","internalType":"uint256"}],"stateMutability":"view"},{"type":"function","name":"transfer","inputs":[{"name":"to","type":"address","internalType":"address"},{"name":"value","type":"uint256","internalType":"uint256"}],"outputs":[{"name":"","type":"bool","internalType":"bool"}],"stateMutability":"nonpayable"},{"type":"function","name":"transferFrom","inputs":[{"name":"from","type":"address","internalType":"address"},{"name":"to","type":"address","internalType":"address"},{"name":"value","type":"uint256","internalType":"uint256"}],"outputs":[{"name":"","type":"bool","internalType":"bool"}],"stateMutability":"nonpayable"},{"type":"function","name":"transferOwnership","inputs":[{"name":"newOwner","type":"address","internalType":"address"}],"outputs":[],"stateMutability":"nonpayable"},{"type":"event","name":"Approval","inputs":[{"name":"owner","type":"address","indexed":true,"internalType":"address"},{"name":"spender","type":"address","indexed":true,"internalType":"address"},{"name":"value","type":"uint256","indexed":false,"internalType":"uint256"}],"anonymous":false},{"type":"event","name":"EIP712DomainChanged","inputs":[],"anonymous":false},{"type":"event","name":"OwnershipTransferred","inputs":[{"name":"previousOwner","type":"address","indexed":true,"internalType":"address"},{"name":"newOwner","type":"address","indexed":true,"internalType":"address"}],"anonymous":false},{"type":"event","name":"Transfer","inputs":[{"name":"from","type":"address","indexed":true,"internalType":"address"},{"name":"to","type":"address","indexed":true,"internalType":"address"},{"name":"value","type":"uint256","indexed":false,"internalType":"uint256"}],"anonymous":false},{"type":"error","name":"ECDSAInvalidSignature","inputs":[]},{"type":"error","name":"ECDSAInvalidSignatureLength","inputs":[{"name":"length","type":"uint256","internalType":"uint256"}]},{"type":"error","name":"ECDSAInvalidSignatureS","inputs":[{"name":"s","type":"bytes32","internalType":"bytes32"}]},{"type":"error","name":"ERC20InsufficientAllowance","inputs":[{"name":"spender","type":"address","internalType":"address"},{"name":"allowance","type":"uint256","internalType":"uint256"},{"name":"needed","type":"uint256","internalType":"uint256"}]},{"type":"error","name":"ERC20InsufficientBalance","inputs":[{"name":"sender","type":"address","internalType":"address"},{"name":"balance","type":"uint256","internalType":"uint256"},{"name":"needed","type":"uint256","internalType":"uint256"}]},{"type":"error","name":"ERC20InvalidApprover","inputs":[{"name":"approver","type":"address","internalType":"address"}]},{"type":"error","name":"ERC20InvalidReceiver","inputs":[{"name":"receiver","type":"address","internalType":"address"}]},{"type":"error","name":"ERC20InvalidSender","inputs":[{"name":"sender","type":"address","internalType":"address"}]},{"type":"error","name":"ERC20InvalidSpender","inputs":[{"name":"spender","type":"address","internalType":"address"}]},{"type":"error","name":"ERC2612ExpiredSignature","inputs":[{"name":"deadline","type":"uint256","internalType":"uint256"}]},{"type":"error","name":"ERC2612InvalidSigner","inputs":[{"name":"signer","type":"address","internalType":"address"},{"name":"owner","type":"address","internalType":"address"}]},{"type":"error","name":"InvalidAccountNonce","inputs":[{"name":"account","type":"address","internalType":"address"},{"name":"currentNonce","type":"uint256","internalType":"uint256"}]},{"type":"error","name":"InvalidShortString","inputs":[]},{"type":"error","name":"OwnableInvalidOwner","inputs":[{"name":"owner","type":"address","internalType":"address"}]},{"type":"error","name":"OwnableUnauthorizedAccount","inputs":[{"name":"account","type":"address","internalType":"address"}]},{"type":"error","name":"StringTooLong","inputs":[{"name":"str","type":"string","internalType":"string"}]}],"bytecode":{"object":"0x6101606040523480156200001257600080fd5b506040518060400160405280600d81526020016c436172626f6e4372656469747360981b81525080604051806040016040528060018152602001603160f81b815250336040518060400160405280600d81526020016c436172626f6e4372656469747360981b81525060405180604001604052806002815260200161434360f01b8152508160039081620000a79190620004bf565b506004620000b68282620004bf565b5050506001600160a01b038116620000e957604051631e4fbdf760e01b8152600060048201526024015b60405180910390fd5b620000f481620001d9565b50620001028260066200022b565b61012052620001138160076200022b565b61014052815160208084019190912060e052815190820120610100524660a052620001a160e05161010051604080517f8b73c3c69bb8fe3d512ecc4cf759cc79239f7b179b0ffacaa9a75d522b39400f60208201529081019290925260608201524660808201523060a082015260009060c00160405160208183030381529060405280519060200120905090565b60805250503060c05250620001d333620001be6012600a6200069e565b620001cd90620f4240620006b6565b62000264565b6200075c565b600580546001600160a01b038381166001600160a01b0319831681179093556040519116919082907f8be0079c531659141344cd1fd0a4f28419497f9722a3daafe3b4186f6b6457e090600090a35050565b60006020835110156200024b576200024383620002a2565b90506200025e565b81620002588482620004bf565b5060ff90505b92915050565b6001600160a01b038216620002905760405163ec442f0560e01b815260006004820152602401620000e0565b6200029e60008383620002e5565b5050565b600080829050601f81511115620002d0578260405163305a27a960e01b8152600401620000e09190620006d0565b8051620002dd8262000721565b179392505050565b6001600160a01b0383166200031457806002600082825462000308919062000746565b90915550620003889050565b6001600160a01b03831660009081526020819052604090205481811015620003695760405163391434e360e21b81526001600160a01b03851660048201526024810182905260448101839052606401620000e0565b6001600160a01b03841660009081526020819052604090209082900390555b6001600160a01b038216620003a657600280548290039055620003c5565b6001600160a01b03821660009081526020819052604090208054820190555b816001600160a01b0316836001600160a01b03167fddf252ad1be2c89b69c2b068fc378daa952ba7f163c4a11628f55a4df523b3ef836040516200040b91815260200190565b60405180910390a3505050565b634e487b7160e01b600052604160045260246000fd5b600181811c908216806200044357607f821691505b6020821081036200046457634e487b7160e01b600052602260045260246000fd5b50919050565b601f821115620004ba576000816000526020600020601f850160051c81016020861015620004955750805b601f850160051c820191505b81811015620004b657828155600101620004a1565b5050505b505050565b81516001600160401b03811115620004db57620004db62000418565b620004f381620004ec84546200042e565b846200046a565b602080601f8311600181146200052b5760008415620005125750858301515b600019600386901b1c1916600185901b178555620004b6565b600085815260208120601f198616915b828110156200055c578886015182559484019460019091019084016200053b565b50858210156200057b5787850151600019600388901b60f8161c191681555b5050505050600190811b01905550565b634e487b7160e01b600052601160045260246000fd5b600181815b80851115620005e2578160001904821115620005c657620005c66200058b565b80851615620005d457918102915b93841c9390800290620005a6565b509250929050565b600082620005fb575060016200025e565b816200060a575060006200025e565b81600181146200062357600281146200062e576200064e565b60019150506200025e565b60ff8411156200064257620006426200058b565b50506001821b6200025e565b5060208310610133831016604e8410600b841016171562000673575081810a6200025e565b6200067f8383620005a1565b80600019048211156200069657620006966200058b565b029392505050565b6000620006af60ff841683620005ea565b9392505050565b80820281158282048414176200025e576200025e6200058b565b60006020808352835180602085015260005b818110156200070057858101830151858201604001528201620006e2565b506000604082860101526040601f19601f8301168501019250505092915050565b80516020808301519190811015620004645760001960209190910360031b1b16919050565b808201808211156200025e576200025e6200058b565b60805160a05160c05160e05161010051610120516101405161117c620007b7600039600061096601526000610939015260006107f6015260006107ce01526000610729015260006107530152600061077d015261117c6000f3fe608060405234801561001057600080fd5b506004361061012c5760003560e01c806379cc6790116100ad57806395d89b411161007157806395d89b4114610279578063a9059cbb14610281578063d505accf14610294578063dd62ed3e146102a7578063f2fde38b146102e057600080fd5b806379cc6790146102075780637ecebe001461021a57806384b0196e1461022d578063893d20e8146102485780638da5cb5b1461026857600080fd5b80633644e515116100f45780633644e515146101a657806340c10f19146101ae57806342966c68146101c357806370a08231146101d6578063715018a6146101ff57600080fd5b806306fdde0314610131578063095ea7b31461014f57806318160ddd1461017257806323b872dd14610184578063313ce56714610197575b600080fd5b6101396102f3565b6040516101469190610ec6565b60405180910390f35b61016261015d366004610efc565b610385565b6040519015158152602001610146565b6002545b604051908152602001610146565b610162610192366004610f26565b61039f565b60405160128152602001610146565b6101766103c3565b6101c16101bc366004610efc565b6103d2565b005b6101c16101d1366004610f62565b6103e8565b6101766101e4366004610f7b565b6001600160a01b031660009081526020819052604090205490565b6101c16103f5565b6101c1610215366004610efc565b610409565b610176610228366004610f7b565b61041e565b61023561043c565b6040516101469796959493929190610f96565b610250610482565b6040516001600160a01b039091168152602001610146565b6005546001600160a01b0316610250565b610139610496565b61016261028f366004610efc565b6104a5565b6101c16102a236600461102f565b6104b3565b6101766102b53660046110a2565b6001600160a01b03918216600090815260016020908152604080832093909416825291909152205490565b6101c16102ee366004610f7b565b6105f2565b606060038054610302906110d5565b80601f016020809104026020016040519081016040528092919081815260200182805461032e906110d5565b801561037b5780601f106103505761010080835404028352916020019161037b565b820191906000526020600020905b81548152906001019060200180831161035e57829003601f168201915b5050505050905090565b60003361039381858561062d565b60019150505b92915050565b6000336103ad85828561063f565b6103b88585856106bd565b506001949350505050565b60006103cd61071c565b905090565b6103da610847565b6103e48282610874565b5050565b6103f233826108aa565b50565b6103fd610847565b61040760006108e0565b565b61041482338361063f565b6103e482826108aa565b6001600160a01b038116600090815260086020526040812054610399565b600060608060008060006060610450610932565b61045861095f565b60408051600080825260208201909252600f60f81b9b939a50919850469750309650945092509050565b60006103cd6005546001600160a01b031690565b606060048054610302906110d5565b6000336103938185856106bd565b834211156104dc5760405163313c898160e11b8152600481018590526024015b60405180910390fd5b60007f6e71edae12b1b97f4d1f60370fef10105fa2faae0126114a169c64845d6126c98888886105298c6001600160a01b0316600090815260086020526040902080546001810190915590565b6040805160208101969096526001600160a01b0394851690860152929091166060840152608083015260a082015260c0810186905260e00160405160208183030381529060405280519060200120905060006105848261098c565b90506000610594828787876109b9565b9050896001600160a01b0316816001600160a01b0316146105db576040516325c0072360e11b81526001600160a01b0380831660048301528b1660248201526044016104d3565b6105e68a8a8a61062d565b50505050505050505050565b6105fa610847565b6001600160a01b03811661062457604051631e4fbdf760e01b8152600060048201526024016104d3565b6103f2816108e0565b61063a83838360016109e7565b505050565b6001600160a01b0383811660009081526001602090815260408083209386168352929052205460001981146106b757818110156106a857604051637dc7a0d960e11b81526001600160a01b038416600482015260248101829052604481018390526064016104d3565b6106b7848484840360006109e7565b50505050565b6001600160a01b0383166106e757604051634b637e8f60e11b8152600060048201526024016104d3565b6001600160a01b0382166107115760405163ec442f0560e01b8152600060048201526024016104d3565b61063a838383610abc565b6000306001600160a01b037f00000000000000000000000000000000000000000000000000000000000000001614801561077557507f000000000000000000000000000000000000000000000000000000000000000046145b1561079f57507f000000000000000000000000000000000000000000000000000000000000000090565b6103cd604080517f8b73c3c69bb8fe3d512ecc4cf759cc79239f7b179b0ffacaa9a75d522b39400f60208201527f0000000000000000000000000000000000000000000000000000000000000000918101919091527f000000000000000000000000000000000000000000000000000000000000000060608201524660808201523060a082015260009060c00160405160208183030381529060405280519060200120905090565b6005546001600160a01b031633146104075760405163118cdaa760e01b81523360048201526024016104d3565b6001600160a01b03821661089e5760405163ec442f0560e01b8152600060048201526024016104d3565b6103e460008383610abc565b6001600160a01b0382166108d457604051634b637e8f60e11b8152600060048201526024016104d3565b6103e482600083610abc565b600580546001600160a01b038381166001600160a01b0319831681179093556040519116919082907f8be0079c531659141344cd1fd0a4f28419497f9722a3daafe3b4186f6b6457e090600090a35050565b60606103cd7f00000000000000000000000000000000000000000000000000000000000000006006610be6565b60606103cd7f00000000000000000000000000000000000000000000000000000000000000006007610be6565b600061039961099961071c565b8360405161190160f01b8152600281019290925260228201526042902090565b6000806000806109cb88888888610c91565b9250925092506109db8282610d60565b50909695505050505050565b6001600160a01b038416610a115760405163e602df0560e01b8152600060048201526024016104d3565b6001600160a01b038316610a3b57604051634a1406b160e11b8152600060048201526024016104d3565b6001600160a01b03808516600090815260016020908152604080832093871683529290522082905580156106b757826001600160a01b0316846001600160a01b03167f8c5be1e5ebec7d5bd14f71427d1e84f3dd0314c0f7b2291e5b200ac8c7c3b92584604051610aae91815260200190565b60405180910390a350505050565b6001600160a01b038316610ae7578060026000828254610adc919061110f565b90915550610b599050565b6001600160a01b03831660009081526020819052604090205481811015610b3a5760405163391434e360e21b81526001600160a01b038516600482015260248101829052604481018390526064016104d3565b6001600160a01b03841660009081526020819052604090209082900390555b6001600160a01b038216610b7557600280548290039055610b94565b6001600160a01b03821660009081526020819052604090208054820190555b816001600160a01b0316836001600160a01b03167fddf252ad1be2c89b69c2b068fc378daa952ba7f163c4a11628f55a4df523b3ef83604051610bd991815260200190565b60405180910390a3505050565b606060ff8314610c0057610bf983610e19565b9050610399565b818054610c0c906110d5565b80601f0160208091040260200160405190810160405280929190818152602001828054610c38906110d5565b8015610c855780601f10610c5a57610100808354040283529160200191610c85565b820191906000526020600020905b815481529060010190602001808311610c6857829003601f168201915b50505050509050610399565b600080807f7fffffffffffffffffffffffffffffff5d576e7357a4501ddfe92f46681b20a0841115610ccc5750600091506003905082610d56565b604080516000808252602082018084528a905260ff891692820192909252606081018790526080810186905260019060a0016020604051602081039080840390855afa158015610d20573d6000803e3d6000fd5b5050604051601f1901519150506001600160a01b038116610d4c57506000925060019150829050610d56565b9250600091508190505b9450945094915050565b6000826003811115610d7457610d74611130565b03610d7d575050565b6001826003811115610d9157610d91611130565b03610daf5760405163f645eedf60e01b815260040160405180910390fd5b6002826003811115610dc357610dc3611130565b03610de45760405163fce698f760e01b8152600481018290526024016104d3565b6003826003811115610df857610df8611130565b036103e4576040516335e2f38360e21b8152600481018290526024016104d3565b60606000610e2683610e58565b604080516020808252818301909252919250600091906020820181803683375050509182525060208101929092525090565b600060ff8216601f81111561039957604051632cd44ac360e21b815260040160405180910390fd5b6000815180845260005b81811015610ea657602081850181015186830182015201610e8a565b506000602082860101526020601f19601f83011685010191505092915050565b602081526000610ed96020830184610e80565b9392505050565b80356001600160a01b0381168114610ef757600080fd5b919050565b60008060408385031215610f0f57600080fd5b610f1883610ee0565b946020939093013593505050565b600080600060608486031215610f3b57600080fd5b610f4484610ee0565b9250610f5260208501610ee0565b9150604084013590509250925092565b600060208284031215610f7457600080fd5b5035919050565b600060208284031215610f8d57600080fd5b610ed982610ee0565b60ff60f81b881681526000602060e06020840152610fb760e084018a610e80565b8381036040850152610fc9818a610e80565b606085018990526001600160a01b038816608086015260a0850187905284810360c08601528551808252602080880193509091019060005b8181101561101d57835183529284019291840191600101611001565b50909c9b505050505050505050505050565b600080600080600080600060e0888a03121561104a57600080fd5b61105388610ee0565b965061106160208901610ee0565b95506040880135945060608801359350608088013560ff8116811461108557600080fd5b9699959850939692959460a0840135945060c09093013592915050565b600080604083850312156110b557600080fd5b6110be83610ee0565b91506110cc60208401610ee0565b90509250929050565b600181811c908216806110e957607f821691505b60208210810361110957634e487b7160e01b600052602260045260246000fd5b50919050565b8082018082111561039957634e487b7160e01b600052601160045260246000fd5b634e487b7160e01b600052602160045260246000fdfea2646970667358221220d573829959e4c5f4ef1ea034bf747f5bd77cd380fcb8fc776971d370d8cc6a5964736f6c63430008180033","linkReferences":{}},"methodIdentifiers":{"DOMAIN_SEPARATOR()":"3644e515","allowance(address,address)":"dd62ed3e","approve(address,uint256)":"095ea7b3","balanceOf(address)":"70a08231","burn(uint256)":"42966c68","burnFrom(address,uint256)":"79cc6790","decimals()":"313ce567","eip712Domain()":"84b0196e","getOwner()":"893d20e8","mint(address,uint256)":"40c10f19","name()":"06fdde03","nonces(address)":"7ecebe00","owner()":"8da5cb5b","permit(address,address,uint256,uint256,uint8,bytes32,bytes32)":"d505accf","renounceOwnership()":"715018a6","symbol()":"95d89b41","totalSupply()":"18160ddd","transfer(address,uint256)":"a9059cbb","transferFrom(address,address,uint256)":"23b872dd","transferOwnership(address)":"f2fde38b"},"id":49}