{"abi":[{"type":"constructor","inputs":[],"stateMutability":"nonpayable"},{"type":"receive","stateMutability":"payable"},{"type":"function","name":"addValidator","inputs":[{"name":"_validator","type":"address","internalType":"address"}],"outputs":[],"stateMutability":"nonpayable"},{"type":"function","name":"claimTokens","inputs":[{"name":"_requestId","type":"uint256","internalType":"uint256"}],"outputs":[],"stateMutability":"nonpayable"},{"type":"function","name":"fundWithCarbonCredits","inputs":[{"name":"_amount","type":"uint256","internalType":"uint256"}],"outputs":[],"stateMutability":"nonpayable"},{"type":"function","name":"getCarbonCreditAddress","inputs":[],"outputs":[{"name":"","type":"address","internalType":"address"}],"stateMutability":"view"},{"type":"function","name":"getCarbonCreditBalance","inputs":[],"outputs":[{"name":"","type":"uint256","internalType":"uint256"}],"stateMutability":"view"},{"type":"function","name":"getCarbonCreditToken","inputs":[],"outputs":[{"name":"","type":"address","internalType":"contract CarbonCredit"}],"stateMutability":"view"},{"type":"function","name":"getHowManyRequests","inputs":[],"outputs":[{"name":"","type":"uint256","internalType":"uint256"}],"stateMutability":"view"},{"type":"function","name":"getRequests","inputs":[{"name":"_requestId","type":"uint256","internalType":"uint256"}],"outputs":[{"name":"","type":"tuple","internalType":"struct EmissionValidator.Request","components":[{"name":"requester","type":"address","internalType":"address"},{"name":"status","type":"uint8","internalType":"enum EmissionValidator.Status"},{"name":"amount","type":"uint256","internalType":"uint256"},{"name":"jsonHash","type":"string","internalType":"string"}]}],"stateMutability":"view"},{"type":"function","name":"getRequestsByAddress","inputs":[{"name":"_address","type":"address","internalType":"address"}],"outputs":[{"name":"","type":"uint256[]","internalType":"uint256[]"}],"stateMutability":"view"},{"type":"function","name":"isPaused","inputs":[],"outputs":[{"name":"","type":"bool","internalType":"bool"}],"stateMutability":"view"},{"type":"function","name":"isValidator","inputs":[{"name":"_validator","type":"address","internalType":"address"}],"outputs":[{"name":"","type":"bool","internalType":"bool"}],"stateMutability":"view"},{"type":"function","name":"owner","inputs":[],"outputs":[{"name":"","type":"address","internalType":"address"}],"stateMutability":"view"},{"type":"function","name":"pause","inputs":[],"outputs":[],"stateMutability":"nonpayable"},{"type":"function","name":"paused","inputs":[],"outputs":[{"name":"","type":"bool","internalType":"bool"}],"stateMutability":"view"},{"type":"function","name":"removeValidator","inputs":[{"name":"_validator","type":"address","internalType":"address"}],"outputs":[],"stateMutability":"nonpayable"},{"type":"function","name":"renounceOwnership","inputs":[],"outputs":[],"stateMutability":"nonpayable"},{"type":"function","name":"requestCounter","inputs":[],"outputs":[{"name":"","type":"uint256","internalType":"uint256"}],"stateMutability":"view"},{"type":"function","name":"setCarbonCreditAddress","inputs":[{"name":"_carbonCreditAddress","type":"address","internalType":"address"}],"outputs":[],"stateMutability":"nonpayable"},{"type":"function","name":"submitRequest","inputs":[{"name":"_jsonHash","type":"string","internalType":"string"}],"outputs":[],"stateMutability":"nonpayable"},{"type":"function","name":"transferOwnership","inputs":[{"name":"newOwner","type":"address","internalType":"address"}],"outputs":[],"stateMutability":"nonpayable"},{"type":"function","name":"unpause","inputs":[],"outputs":[],"stateMutability":"nonpayable"},{"type":"function","name":"validateRequest","inputs":[{"name":"_requestId","type":"uint256","internalType":"uint256"},{"name":"_status","type":"uint8","internalType":"enum EmissionValidator.Status"},{"name":"_amount","type":"uint256","internalType":"uint256"}],"outputs":[],"stateMutability":"nonpayable"},{"type":"event","name":"OwnershipTransferred","inputs":[{"name":"previousOwner","type":"address","indexed":true,"internalType":"address"},{"name":"newOwner","type":"address","indexed":true,"internalType":"address"}],"anonymous":false},{"type":"event","name":"Paused","inputs":[{"name":"account","type":"address","indexed":false,"internalType":"address"}],"anonymous":false},{"type":"event","name":"RequestSubmitted","inputs":[{"name":"requestId","type":"uint256","indexed":false,"internalType":"uint256"},{"name":"requester","type":"address","indexed":false,"internalType":"address"}],"anonymous":false},{"type":"event","name":"RequestValidated","inputs":[{"name":"requestId","type":"uint256","indexed":false,"internalType":"uint256"},{"name":"status","type":"uint8","indexed":false,"internalType":"enum EmissionValidator.Status"},{"name":"amount","type":"uint256","indexed":false,"internalType":"uint256"}],"anonymous":false},{"type":"event","name":"TokensClaimed","inputs":[{"name":"_requestId","type":"uint256","indexed":false,"internalType":"uint256"},{"name":"requester","type":"address","indexed":false,"internalType":"address"},{"name":"amount","type":"uint256","indexed":false,"internalType":"uint256"}],"anonymous":false},{"type":"event","name":"Unpaused","inputs":[{"name":"account","type":"address","indexed":false,"internalType":"address"}],"anonymous":false},{"type":"error","name":"AddressEmptyCode","inputs":[{"name":"target","type":"address","internalType":"address"}]},{"type":"error","name":"AddressInsufficientBalance","inputs":[{"name":"account","type":"address","internalType":"address"}]},{"type":"error","name":"EnforcedPause","inputs":[]},{"type":"error","name":"ExpectedPause","inputs":[]},{"type":"error","name":"FailedInnerCall","inputs":[]},{"type":"error","name":"OwnableInvalidOwner","inputs":[{"name":"owner","type":"address","internalType":"address"}]},{"type":"error","name":"OwnableUnauthorizedAccount","inputs":[{"name":"account","type":"address","internalType":"address"}]},{"type":"error","name":"SafeERC20FailedOperation","inputs":[{"name":"token","type":"address","internalType":"address"}]}],"bytecode":{"object":"0x608060405234801561001057600080fd5b50338061003757604051631e4fbdf760e01b81526000600482015260240160405180910390fd5b61004081610053565b506000805460ff60a01b191690556100a3565b600080546001600160a01b038381166001600160a01b0319831681178455604051919092169283917f8be0079c531659141344cd1fd0a4f28419497f9722a3daafe3b4186f6b6457e09190a35050565b6117d8806100b26000396000f3fe6080604052600436106101395760003560e01c80638da5cb5b116100ab578063e10ded031161006f578063e10ded0314610395578063e2e46b52146103c2578063e38cb4e6146103e2578063f22d4737146103f7578063f2fde38b14610417578063facd743b1461043757600080fd5b80638da5cb5b146102f5578063973a814e14610313578063a7778a2514610329578063b187bd2614610349578063d5e788291461036857600080fd5b80634d238c8e116100fd5780634d238c8e146102605780635c975abb14610280578063715018a6146102ab5780638456cb59146102c0578063855e1b7a146102d55780638da1268b146101ba57600080fd5b806308868d2e146101ba57806339a190a3146101ec5780633f4ba83a1461020b57806340a141ff1461022057806346e04a2f1461024057600080fd5b366101b5576004805460405163a9059cbb60e01b815230928101929092523460248301526001600160a01b03169063a9059cbb906044016020604051808303816000875af115801561018f573d6000803e3d6000fd5b505050506040513d601f19601f820116820180604052508101906101b39190611331565b005b600080fd5b3480156101c657600080fd5b506101cf610470565b6040516001600160a01b0390911681526020015b60405180910390f35b3480156101f857600080fd5b506005545b6040519081526020016101e3565b34801561021757600080fd5b506101b36104b4565b34801561022c57600080fd5b506101b361023b366004611353565b6104c6565b34801561024c57600080fd5b506101b361025b36600461137c565b6104ef565b34801561026c57600080fd5b506101b361027b366004611353565b610871565b34801561028c57600080fd5b50600054600160a01b900460ff165b60405190151581526020016101e3565b3480156102b757600080fd5b506101b361089d565b3480156102cc57600080fd5b506101b36108af565b3480156102e157600080fd5b506101b36102f0366004611395565b6108bf565b34801561030157600080fd5b506000546001600160a01b03166101cf565b34801561031f57600080fd5b506101fd60055481565b34801561033557600080fd5b506101b3610344366004611353565b610a22565b34801561035557600080fd5b50600054600160a01b900460ff1661029b565b34801561037457600080fd5b5061038861038336600461137c565b610a68565b6040516101e3919061142d565b3480156103a157600080fd5b506103b56103b0366004611353565b610b8c565b6040516101e39190611498565b3480156103ce57600080fd5b506101b36103dd3660046114f2565b610bf8565b3480156103ee57600080fd5b506101fd610d27565b34801561040357600080fd5b506101b361041236600461137c565b610dbf565b34801561042357600080fd5b506101b3610432366004611353565b610f8d565b34801561044357600080fd5b5061029b610452366004611353565b6001600160a01b031660009081526002602052604090205460ff1690565b6004546000906001600160a01b03166104a45760405162461bcd60e51b815260040161049b906115a3565b60405180910390fd5b506004546001600160a01b031690565b6104bc610fc8565b6104c4610ff5565b565b6104ce610fc8565b6001600160a01b03166000908152600260205260409020805460ff19169055565b6104f761104a565b6004546001600160a01b031661051f5760405162461bcd60e51b815260040161049b906115a3565b6001600082815260016020526040902054600160a01b900460ff16600381111561054b5761054b6113d1565b146105985760405162461bcd60e51b815260206004820152601760248201527f52657175657374206973206e6f7420617070726f766564000000000000000000604482015260640161049b565b6000818152600160205260409020546001600160a01b031633146105fe5760405162461bcd60e51b815260206004820152601b60248201527f43616c6c6572206973206e6f7420746865207265717565737465720000000000604482015260640161049b565b600081815260016020819052604090912001546106525760405162461bcd60e51b81526020600482015260126024820152714e6f20746f6b656e7320746f20636c61696d60701b604482015260640161049b565b60008181526001602081905260409182902001546004805492516370a0823160e01b8152309181019190915290916001600160a01b0316906370a0823190602401602060405180830381865afa1580156106b0573d6000803e3d6000fd5b505050506040513d601f19601f820116820180604052508101906106d491906115da565b10156107225760405162461bcd60e51b815260206004820152601a60248201527f4e6f7420656e6f75676820746f6b656e7320746f20636c61696d000000000000604482015260640161049b565b60008181526001602081905260409091200154806107775760405162461bcd60e51b81526020600482015260126024820152714e6f20746f6b656e7320746f20636c61696d60701b604482015260640161049b565b60008281526001602081905260408083209091019190915560048054915163a9059cbb60e01b81523391810191909152602481018390526001600160a01b039091169063a9059cbb906044016020604051808303816000875af11580156107e2573d6000803e3d6000fd5b505050506040513d601f19601f820116820180604052508101906108069190611331565b50600082815260016020526040902080546003919060ff60a01b1916600160a01b830217905550604080518381523360208201529081018290527f880f2ef2613b092f1a0a819f294155c98667eb294b7e6bf7a3810278142c1a1c9060600160405180910390a15050565b610879610fc8565b6001600160a01b03166000908152600260205260409020805460ff19166001179055565b6108a5610fc8565b6104c46000611075565b6108b7610fc8565b6104c46110c5565b6108c761104a565b3360009081526002602052604090205460ff166109265760405162461bcd60e51b815260206004820152601960248201527f43616c6c6572206973206e6f7420612076616c696461746f7200000000000000604482015260640161049b565b60008084815260016020526040902054600160a01b900460ff166003811115610951576109516113d1565b146109975760405162461bcd60e51b815260206004820152601660248201527552657175657374206973206e6f742070656e64696e6760501b604482015260640161049b565b6000838152600160205260409020805483919060ff60a01b1916600160a01b8360038111156109c8576109c86113d1565b021790555060008381526001602081905260409182902001829055517f224558e587b8e98220f4f4d5264ef073f7a1017119fb49161206c8e996a79c1590610a15908590859085906115f3565b60405180910390a1505050565b610a2a610fc8565b6001600160a01b038116610a3e5780610a40565b805b600480546001600160a01b0319166001600160a01b039290921691909117905550565b905090565b604080516080810182526000808252602082018190529181019190915260608082015260008281526001602090815260409182902082516080810190935280546001600160a01b03811684529091830190600160a01b900460ff166003811115610ad457610ad46113d1565b6003811115610ae557610ae56113d1565b815260200160018201548152602001600282018054610b0390611615565b80601f0160208091040260200160405190810160405280929190818152602001828054610b2f90611615565b8015610b7c5780601f10610b5157610100808354040283529160200191610b7c565b820191906000526020600020905b815481529060010190602001808311610b5f57829003601f168201915b5050505050815250509050919050565b6001600160a01b038116600090815260036020908152604091829020805483518184028101840190945280845260609392830182828015610bec57602002820191906000526020600020905b815481526020019060010190808311610bd8575b50505050509050919050565b610c0061104a565b6005546040805160808101909152338152602081016000815260006020808301829052604092830186905284825260018152919020825181546001600160a01b039091166001600160a01b031982168117835592840151919283916001600160a81b03191617600160a01b836003811115610c7d57610c7d6113d1565b02179055506040820151600182015560608201516002820190610ca0908261169f565b505033600081815260036020908152604080832080546001810182559084529190922001849055517f67da995c6df7166078290dae7ac4f9c90eeb269d051c434663949b26f04dba1d9250610d06918482526001600160a01b0316602082015260400190565b60405180910390a160058054906000610d1e8361175f565b91905055505050565b6004546000906001600160a01b0316610d525760405162461bcd60e51b815260040161049b906115a3565b600480546040516370a0823160e01b815230928101929092526001600160a01b0316906370a0823190602401602060405180830381865afa158015610d9b573d6000803e3d6000fd5b505050506040513d601f19601f82011682018060405250810190610a6391906115da565b610dc761104a565b6004546001600160a01b0316610def5760405162461bcd60e51b815260040161049b906115a3565b610df7610fc8565b60048054604051636eb1769f60e11b8152339281019290925230602483015282916001600160a01b039091169063dd62ed3e90604401602060405180830381865afa158015610e4a573d6000803e3d6000fd5b505050506040513d601f19601f82011682018060405250810190610e6e91906115da565b1015610eb35760405162461bcd60e51b81526020600482015260146024820152734e6f7420656e6f75676820616c6c6f77616e636560601b604482015260640161049b565b600480546040516370a0823160e01b8152339281019290925282916001600160a01b03909116906370a0823190602401602060405180830381865afa158015610f00573d6000803e3d6000fd5b505050506040513d601f19601f82011682018060405250810190610f2491906115da565b1015610f725760405162461bcd60e51b815260206004820152601d60248201527f4e6f7420656e6f75676820746f6b656e7320746f207472616e73666572000000604482015260640161049b565b600454610f8a906001600160a01b0316333084611108565b50565b610f95610fc8565b6001600160a01b038116610fbf57604051631e4fbdf760e01b81526000600482015260240161049b565b610f8a81611075565b6000546001600160a01b031633146104c45760405163118cdaa760e01b815233600482015260240161049b565b610ffd611168565b6000805460ff60a01b191690557f5db9ee0a495bf2e6ff9c91a7834c1ba4fdd244a5e8aa4e537bd38aeae4b073aa335b6040516001600160a01b03909116815260200160405180910390a1565b600054600160a01b900460ff16156104c45760405163d93c066560e01b815260040160405180910390fd5b600080546001600160a01b038381166001600160a01b0319831681178455604051919092169283917f8be0079c531659141344cd1fd0a4f28419497f9722a3daafe3b4186f6b6457e09190a35050565b6110cd61104a565b6000805460ff60a01b1916600160a01b1790557f62e78cea01bee320cd4e420270b5ea74000d11b0c9f74754ebdbfc544b05a25861102d3390565b604080516001600160a01b0385811660248301528416604482015260648082018490528251808303909101815260849091019091526020810180516001600160e01b03166323b872dd60e01b179052611162908590611192565b50505050565b600054600160a01b900460ff166104c457604051638dfc202b60e01b815260040160405180910390fd5b60006111a76001600160a01b038416836111fa565b905080516000141580156111cc5750808060200190518101906111ca9190611331565b155b156111f557604051635274afe760e01b81526001600160a01b038416600482015260240161049b565b505050565b60606112088383600061120f565b9392505050565b6060814710156112345760405163cd78605960e01b815230600482015260240161049b565b600080856001600160a01b031684866040516112509190611786565b60006040518083038185875af1925050503d806000811461128d576040519150601f19603f3d011682016040523d82523d6000602084013e611292565b606091505b50915091506112a28683836112ac565b9695505050505050565b6060826112c1576112bc82611308565b611208565b81511580156112d857506001600160a01b0384163b155b1561130157604051639996b31560e01b81526001600160a01b038516600482015260240161049b565b5080611208565b8051156113185780518082602001fd5b604051630a12f52160e11b815260040160405180910390fd5b60006020828403121561134357600080fd5b8151801515811461120857600080fd5b60006020828403121561136557600080fd5b81356001600160a01b038116811461120857600080fd5b60006020828403121561138e57600080fd5b5035919050565b6000806000606084860312156113aa57600080fd5b833592506020840135600481106113c057600080fd5b929592945050506040919091013590565b634e487b7160e01b600052602160045260246000fd5b6004811061140557634e487b7160e01b600052602160045260246000fd5b9052565b60005b8381101561142457818101518382015260200161140c565b50506000910152565b602080825282516001600160a01b03168282015282015160009061145460408401826113e7565b5060408301516060830152606083015160808084015280518060a08501526114838160c0860160208501611409565b601f01601f19169290920160c0019392505050565b6020808252825182820181905260009190848201906040850190845b818110156114d0578351835292840192918401916001016114b4565b50909695505050505050565b634e487b7160e01b600052604160045260246000fd5b60006020828403121561150457600080fd5b813567ffffffffffffffff8082111561151c57600080fd5b818401915084601f83011261153057600080fd5b813581811115611542576115426114dc565b604051601f8201601f19908116603f0116810190838211818310171561156a5761156a6114dc565b8160405282815287602084870101111561158357600080fd5b826020860160208301376000928101602001929092525095945050505050565b6020808252601d908201527f436172626f6e43726564697420746f6b656e206973206e6f7420736574000000604082015260600190565b6000602082840312156115ec57600080fd5b5051919050565b8381526060810161160760208301856113e7565b826040830152949350505050565b600181811c9082168061162957607f821691505b60208210810361164957634e487b7160e01b600052602260045260246000fd5b50919050565b601f8211156111f5576000816000526020600020601f850160051c810160208610156116785750805b601f850160051c820191505b8181101561169757828155600101611684565b505050505050565b815167ffffffffffffffff8111156116b9576116b96114dc565b6116cd816116c78454611615565b8461164f565b602080601f83116001811461170257600084156116ea5750858301515b600019600386901b1c1916600185901b178555611697565b600085815260208120601f198616915b8281101561173157888601518255948401946001909101908401611712565b508582101561174f5787850151600019600388901b60f8161c191681555b5050505050600190811b01905550565b60006001820161177f57634e487b7160e01b600052601160045260246000fd5b5060010190565b60008251611798818460208701611409565b919091019291505056fea2646970667358221220d20a9dee31de66d310ac6019c057b46c2e054d57f511752d4e0dce0f010988e064736f6c63430008180033","linkReferences":{}},"methodIdentifiers":{"addValidator(address)":"4d238c8e","claimTokens(uint256)":"46e04a2f","fundWithCarbonCredits(uint256)":"f22d4737","getCarbonCreditAddress()":"08868d2e","getCarbonCreditBalance()":"e38cb4e6","getCarbonCreditToken()":"8da1268b","getHowManyRequests()":"39a190a3","getRequests(uint256)":"d5e78829","getRequestsByAddress(address)":"e10ded03","isPaused()":"b187bd26","isValidator(address)":"facd743b","owner()":"8da5cb5b","pause()":"8456cb59","paused()":"5c975abb","removeValidator(address)":"40a141ff","renounceOwnership()":"715018a6","requestCounter()":"973a814e","setCarbonCreditAddress(address)":"a7778a25","submitRequest(string)":"e2e46b52","transferOwnership(address)":"f2fde38b","unpause()":"3f4ba83a","validateRequest(uint256,uint8,uint256)":"855e1b7a"},"id":50}